:10016800271E1F20212223242526050417100C11E1
:1001780000006500000000E329000000002B3500A6
:10018800E200E1E6E0141E0000001D16041A1F003C
:1001980000061B0708212000520019091715224FD5
:1001A8000011050B0A1C23000000100D182425005F
:1001B80000360E0C122726000037380F33132D0097
:1001C800000034002F2E000039E528302C31500073
:1001D8005100000000004C0000000000000000007A
:1001E800002A0000000000000000000000000000DD
:1001F80000000000000000000000000000002900CE
:100208000000000000003A000000000000003B0071
:1002180000000000003D3C004B00000000003E4D87
:100228000000000000003F00000000000040410006
:1002380000000000004342000000000000004400ED
:1002480000000000004500000000000000004A0017
:100258004E00000000000000000000000000000048
:100268000000000000000000000000000000000086
:10055200021F012C02180000010B000124000123DC
:1005620000012100021B00000C0C0C00A101000084
:10057200000000000000012500011D00011E000115
:060582000A01020800005E
:10058900750C0CE4F50D750EA1750F01F510F5113B
:10059900F512F513F514F515F516F517752201225F
:10000E00D282C293C286E4F518F519F50BF524C217
:04001E0096D2AF22A5
:10041F0053D9BF1205F81200031205A91205E412F1
:10042F00058912027812000E7F0A7E001205C9E5B7
:10043F000A64017021E525601DE4F50AE525B51D67
:10044F0003E4F51E7427251EF8E6FF120026051E8D
:10045F001525D2998006E4F525750A01E50B601282
:10046F00E4F518F519F50BD2937FD07E071205C965
:10047F00C293E5246005E4F524C282E521B401A806
:08048F00E4F52112027880A0BF
:1005F80075F27F75A41475A54875E10175E240226E
:10027800E4F521C2AF7F32FE1205C975BB0F75BA0E
:100288001143BC04D2EFE4FFFEFDC2EDD2EC30ED29
:10029800FDEDD394044008ACBEEC2FFFE43EFE0D08
:1002A800BD0AE7C2EF7C007D051203A4EF2403FD1D
:1002B800D3947340057523648053EDD3946E400541
:1002C80075234B8048EDD394694005752332803DF2
:1002D800EDD3946440057523288032EDD3945F40B4
:1002E8000575231E8027EDD3945A40057523148085
:1002F8001CEDD39455400575230A8011EDD3945015
:0F03080040057523058006E4F523752401D2AF67
:0103170022C3
:0700030075B28175EF0422C4
:1005E400758C81438E02858C8A5389F0438902D2AB
:0405F4008CD2A922DA
:1005A900759810758DCB538EF4438E08858D8B53BA
:1005B900890F438920D28E750A0143B810D2AC2223
:03000B0002049755
:09049700C0E0C0D075D000C00621
:1004A0000509E509AE087002050814C394E8EE6476
:1004B000809483403D7508007509000519E51970A1
:1004C000020518051CE51C7002051BE5199520E5C1
:1004D00018951F4009751800751900752401C3E5AA
:1004E0001C9458E51B94024009751B00751C00758F
:0204F0002101E8
:0704F200D006D0D0D0E032AB
:030023000204F9DB
:1004F900C0E0C0D075D000C000C0077518007519DC
:100509000030981DE5257002F51DC29885991AE5F8
:1005190025C39430500B7427251DF8A61A05250507
:100529001D30991CC299E526C3940C500DAF2605C0
:1005390026740C2FF8E6F5998006752600750A01D0
:09054900D007D000D0D0D0E03280
:100026008F57E5571203F9008B020067070063102C
:10003600005F12006F13005B14006B590091820081
:100046007F87007B900077920087930073940083EC
:10005600D9000000964310012243100222431004E7
:10006600224310082243102022431040225310FE40
:10007600225310FD225310FB225310F7225310DF98
:10008600225310BF22E4F522F512227522018005C3
:10009600E55730E70EE4F512F513F514F515F516E8
:1000A600F51722E522B40108E55790017893F51279
:1000B600E5226003020167E557B42B06E4F51275E5
:1000C6000B01E557B45D06E4F512752401E55764A6
:1000D60064703A120278E52375F06484900168939F
:1000E600F512E52375F06484E5F075F00A8493F55E
:1000F60013E52375F00A84E5F093F514900172E494
:1001060093F515A3E493F516A3E493F517E5576461
:100116001B7046C3E5209458E51F94025012751FC4
:100126000775200890016BE493F512900168801022
:10013600751F0175202C900168E493F51290016DEE
:10014600E493F513900175E493F514A3E493F51580
:10015600A3E493F516E4F51722E5579001F893F515
:02016600122263
:1005C900EF1FAA0670011E4A60107C017DF4ED1D23
:0A05D900AA0470011C4A60E880F4D7
:0105E30022F5
:03000000020318E0
:0C031800787FE4F6D8FD75815702035F82
:1003A400BC000BBE0029EF8DF084FFADF022E4CC3D
:1003B400F875F008EF2FFFEE33FEEC33FCEE9DEC06
:1003C400984005FCEE9DFE0FD5F0E9E4CEFD22ED4C
:1003D400F8F5F0EE8420D21CFEADF075F008EF2F96
:1003E400FFED33FD4007985006D5F0F222C398FD87
:0503F4000FD5F0EA2224
:1003F900D083D082F8E4937012740193700DA3A393
:1004090093F8740193F5828883E4737402936860A6
:06041900EFA3A3A380DFA6
:1003240002041FE493A3F8E493A34003F68001F2CC
:1003340008DFF48029E493A3F85407240CC8C333DA
:10034400C4540F4420C8834004F456800146F6DFA9
:10035400E4800B0102040810204080900552E47EE2
:10036400019360BCA3FF543F30E509541FFEE4939E
:10037400A360010ECF54C025E060A840B8E493A365
:10038400FAE493A3F8E493A3C8C582C8CAC583CA90
:10039400F0A3C8C582C8CAC583CADFE9DEE780BE48
:010588000072
:00000001FF
