:10016800271E1F20212223242526050417100C11E1
:1001780000006500000000E329000000002B3500A6
:10018800E200E1E6E0141E0000001D16041A1F003C
:1001980000061B0708212000520019091715224FD5
:1001A8000011050B0A1C23000000100D182425005F
:1001B80000360E0C122726000037380F33132D0097
:1001C800000034002F2E000039E528302C31500073
:1001D8005100000000004C0000000000000000007A
:1001E800002A0000000000000000000000000000DD
:1001F80000000000000000000000000000002900CE
:100208000000000000003A000000000000003B0071
:1002180000000000003D3C004B00000000003E4D87
:100228000000000000003F00000000000040410006
:1002380000000000004342000000000000004400ED
:1002480000000000004500000000000000004A0017
:100258004E00000000000000000000000000000048
:100268000000000000000000000000000000000086
:10057C00023C012C02410000013F000145000144F6
:10058C0000013A00021800000C0A0C00A101000046
:10059C00000000000000011600013E00013B0001BC
:0605AC00430102080000FB
:1002780053D9BF1205EE1200031205B312000ED2B5
:1002880082C293C286E4F541F542F53FF545F53A59
:10029800750A0CF50B750CA1750D01F50EF50FF52A
:1002A80010F511F512F513F514F515754001120343
:1002B8001CC296D2AF7F0A7E001205D3E5436401C3
:1002C8007021E516601DE4F543E516B53E03E4F537
:1002D8003B741A253BF8E6FF120026053B1516D29B
:1002E800998006E4F516754301E53F6012E4F5418F
:1002F800F542F53FD2937FD07E071205D3C293E52E
:10030800456005E4F545C282E53A60A9E4F53A128C
:04031800031C80A1A1
:1005EE0075F27F75A41475A54875E10175E2402278
:10031C00C2AF7F327E001205D375BB0F75BA114385
:10032C00BC04D2EFE4FFFEFDC2EDD2EC30EDFDEDEE
:10033C00D394044008ACBEEC2FFFE43EFE0DBD0A86
:10034C00E7C2EF7C007D05120446EF2403FDD39435
:10035C007340057544648053EDD3946E4005754429
:10036C004B8048EDD394694005754432803DEDD304
:10037C00946440057544288032EDD3945F40057534
:10038C00441E8027EDD3945A4005754414801CED0F
:10039C00D39455400575440A8011EDD39450400513
:0D03AC007544058006E4F544754501D2AFA7
:0103B9002221
:0700030075B28175EF0422C4
:10000E00758C81438E02858C8A5389F0438902D286
:04001E008CD2A922B5
:1005B300759810758DCB538EF4438E08858D8B53B0
:1005C300890F438920D28E75430143B810D2AC22E0
:03000B000204C12B
:0904C100C0E0C0D075D000C006F7
:1004CA000509E509AE087002050814C394E8EE644C
:1004DA00809483403D7508007509000542E5427025
:1004EA000205410519E51970020518E542953DE531
:1004FA0041953C4009754100754200754501C3E5C7
:10050A00199458E518940240097518007519007570
:02051A003A01A4
:07051C00D006D0D0D0E03280
:03002300020523B0
:10052300C0E0C0D075D000C000C00775410075425F
:100533000030981DE5167002F53EC298859917E5BF
:1005430016C39420500B741A253EF8A617051605FA
:100553003E30991CC299E546C3940C500DAF460535
:1005630046740A2FF8E6F59980067546007543012F
:09057300D007D000D0D0D0E03256
:100026008F48E54812049B008B02006707006310A7
:10003600005F12006F13005B14006B590091820081
:100046007F87007B900077920087930073940083EC
:10005600D900000096430E0122430E0222430E04ED
:1000660022430E0822430E2022430E4022530EFE48
:1000760022530EFD22530EFB22530EF722530EDFA0
:1000860022530EBF22E4F540F5102275400180058B
:10009600E54830E70EE4F510F511F512F513F51401
:1000A600F51522E540B40108E54890017893F5106E
:1000B600E5406003020167E548B42B06E4F51075D8
:1000C6003F01E548B45D06E4F510754501E5486471
:1000D60064703A12031CE54475F0648490016893D9
:1000E600F510E54475F06484E5F075F00A8493F53F
:1000F60011E54475F00A84E5F093F512900172E477
:1001060093F513A3E493F514A3E493F515E5486476
:100116001B7046C3E53D9458E53C94025012753C6D
:1001260007753D0890016BE493F510900168801007
:10013600753C01753D2C900168E493F51090016DB6
:10014600E493F511900175E493F512A3E493F51386
:10015600A3E493F514E4F51522E5489001F893F528
:02016600102265
:1005D300EF1FAA0670011E4A60107C017DF4ED1D19
:0A05E300AA0470011C4A60E880F4CD
:0105ED0022EB
:030000000203BA3E
:0C03BA00787FE4F6D8FD7581480204014C
:10044600BC000BBE0029EF8DF084FFADF022E4CC9A
:10045600F875F008EF2FFFEE33FEEC33FCEE9DEC63
:10046600984005FCEE9DFE0FD5F0E9E4CEFD22EDA9
:10047600F8F5F0EE8420D21CFEADF075F008EF2FF3
:10048600FFED33FD4007985006D5F0F222C398FDE4
:050496000FD5F0EA2281
:10049B00D083D082F8E4937012740193700DA3A3F0
:1004AB0093F8740193F5828883E473740293686004
:0604BB00EFA3A3A380DF04
:1003C600020278E493A3F8E493A34003F68001F2D3
:1003D60008DFF48029E493A3F85407240CC8C33338
:1003E600C4540F4420C8834004F456800146F6DF07
:1003F600E4800B010204081020408090057CE47E16
:10040600019360BCA3FF543F30E509541FFEE493FB
:10041600A360010ECF54C025E060A840B8E493A3C2
:10042600FAE493A3F8E493A3C8C582C8CAC583CAED
:10043600F0A3C8C582C8CAC583CADFE9DEE780BEA5
:0105B2000048
:00000001FF
